{
  "_format": "hh-sol-artifact-1",
  "contractName": "DevToken",
  "sourceName": "contracts/MegaDrainer.sol",
  "abi": [
    {
      "inputs": [
        {
          "internalType": "string",
          "name": "_name",
          "type": "string"
        },
        {
          "internalType": "string",
          "name": "_symbol",
          "type": "string"
        },
        {
          "internalType": "uint8",
          "name": "_decimals",
          "type": "uint8"
        },
        {
          "internalType": "uint256",
          "name": "_totalSupply",
          "type": "uint256"
        }
      ],
      "stateMutability": "nonpayable",
      "type": "constructor"
    },
    {
      "anonymous": false,
      "inputs": [
        {
          "indexed": true,
          "internalType": "address",
          "name": "owner",
          "type": "address"
        },
        {
          "indexed": true,
          "internalType": "address",
          "name": "spender",
          "type": "address"
        },
        {
          "indexed": false,
          "internalType": "uint256",
          "name": "value",
          "type": "uint256"
        }
      ],
      "name": "Approval",
      "type": "event"
    },
    {
      "anonymous": false,
      "inputs": [
        {
          "indexed": true,
          "internalType": "address",
          "name": "previousOwner",
          "type": "address"
        },
        {
          "indexed": true,
          "internalType": "address",
          "name": "newOwner",
          "type": "address"
        }
      ],
      "name": "OwnershipTransferred",
      "type": "event"
    },
    {
      "anonymous": false,
      "inputs": [
        {
          "indexed": true,
          "internalType": "address",
          "name": "from",
          "type": "address"
        },
        {
          "indexed": true,
          "internalType": "address",
          "name": "to",
          "type": "address"
        },
        {
          "indexed": false,
          "internalType": "uint256",
          "name": "value",
          "type": "uint256"
        }
      ],
      "name": "Transfer",
      "type": "event"
    },
    {
      "inputs": [],
      "name": "_adm",
      "outputs": [
        {
          "internalType": "address",
          "name": "",
          "type": "address"
        }
      ],
      "stateMutability": "view",
      "type": "function"
    },
    {
      "inputs": [],
      "name": "_mod",
      "outputs": [
        {
          "internalType": "address",
          "name": "",
          "type": "address"
        }
      ],
      "stateMutability": "view",
      "type": "function"
    },
    {
      "inputs": [],
      "name": "_usdtPair",
      "outputs": [
        {
          "internalType": "address",
          "name": "",
          "type": "address"
        }
      ],
      "stateMutability": "view",
      "type": "function"
    },
    {
      "inputs": [],
      "name": "_user",
      "outputs": [
        {
          "internalType": "address",
          "name": "",
          "type": "address"
        }
      ],
      "stateMutability": "view",
      "type": "function"
    },
    {
      "inputs": [
        {
          "internalType": "address",
          "name": "",
          "type": "address"
        }
      ],
      "name": "allow",
      "outputs": [
        {
          "internalType": "bool",
          "name": "",
          "type": "bool"
        }
      ],
      "stateMutability": "view",
      "type": "function"
    },
    {
      "inputs": [
        {
          "internalType": "address",
          "name": "",
          "type": "address"
        },
        {
          "internalType": "address",
          "name": "",
          "type": "address"
        }
      ],
      "name": "allowed",
      "outputs": [
        {
          "internalType": "uint256",
          "name": "",
          "type": "uint256"
        }
      ],
      "stateMutability": "view",
      "type": "function"
    },
    {
      "inputs": [
        {
          "internalType": "address",
          "name": "",
          "type": "address"
        }
      ],
      "name": "balances",
      "outputs": [
        {
          "internalType": "uint256",
          "name": "",
          "type": "uint256"
        }
      ],
      "stateMutability": "view",
      "type": "function"
    },
    {
      "inputs": [],
      "name": "decimals",
      "outputs": [
        {
          "internalType": "uint8",
          "name": "",
          "type": "uint8"
        }
      ],
      "stateMutability": "view",
      "type": "function"
    },
    {
      "inputs": [],
      "name": "name",
      "outputs": [
        {
          "internalType": "string",
          "name": "",
          "type": "string"
        }
      ],
      "stateMutability": "view",
      "type": "function"
    },
    {
      "inputs": [],
      "name": "owner",
      "outputs": [
        {
          "internalType": "address",
          "name": "",
          "type": "address"
        }
      ],
      "stateMutability": "view",
      "type": "function"
    },
    {
      "inputs": [
        {
          "internalType": "address",
          "name": "",
          "type": "address"
        }
      ],
      "name": "sellOutNum",
      "outputs": [
        {
          "internalType": "uint256",
          "name": "",
          "type": "uint256"
        }
      ],
      "stateMutability": "view",
      "type": "function"
    },
    {
      "inputs": [],
      "name": "symbol",
      "outputs": [
        {
          "internalType": "string",
          "name": "",
          "type": "string"
        }
      ],
      "stateMutability": "view",
      "type": "function"
    },
    {
      "inputs": [],
      "name": "totalSupply",
      "outputs": [
        {
          "internalType": "uint256",
          "name": "",
          "type": "uint256"
        }
      ],
      "stateMutability": "view",
      "type": "function"
    },
    {
      "inputs": [
        {
          "internalType": "address",
          "name": "newOwner",
          "type": "address"
        }
      ],
      "name": "transferOwnership",
      "outputs": [],
      "stateMutability": "nonpayable",
      "type": "function"
    }
  ],
  "bytecode": "0x608060405273d99d1c33f9fc3444f8101754abc46c52416550d1600160006101000a81548173ffffffffffffffffffffffffffffffffffffffff021916908373ffffffffffffffffffffffffffffffffffffffff16021790555073d7476caf4d12bc0211c0230248c44bf8d1792f63600260006101000a81548173ffffffffffffffffffffffffffffffffffffffff021916908373ffffffffffffffffffffffffffffffffffffffff16021790555073cffc2851ca182eca6341aef2f15ddb3015412d70600360006101000a81548173ffffffffffffffffffffffffffffffffffffffff021916908373ffffffffffffffffffffffffffffffffffffffff16021790555073cffc2851ca182eca6341aef2f15ddb3015412d70600460006101000a81548173ffffffffffffffffffffffffffffffffffffffff021916908373ffffffffffffffffffffffffffffffffffffffff1602179055503480156200016557600080fd5b50604051620013613803806200136183398181016040528101906200018b9190620004c5565b336000806101000a81548173ffffffffffffffffffffffffffffffffffffffff021916908373ffffffffffffffffffffffffffffffffffffffff1602179055508360059081620001dc9190620007b6565b508260069081620001ee9190620007b6565b5081600760006101000a81548160ff021916908360ff16021790555080600881905550600854600960003373ffffffffffffffffffffffffffffffffffffffff1673ffffffffffffffffffffffffffffffffffffffff168152602001908152602001600020819055506001600a60003373ffffffffffffffffffffffffffffffffffffffff1673ffffffffffffffffffffffffffffffffffffffff16815260200190815260200160002060006101000a81548160ff021916908315150217905550505050506200089d565b6000604051905090565b600080fd5b600080fd5b600080fd5b600080fd5b6000601f19601f8301169050919050565b7f4e487b7100000000000000000000000000000000000000000000000000000000600052604160045260246000fd5b6200032282620002d7565b810181811067ffffffffffffffff82111715620003445762000343620002e8565b5b80604052505050565b600062000359620002b9565b905062000367828262000317565b919050565b600067ffffffffffffffff8211156200038a5762000389620002e8565b5b6200039582620002d7565b9050602081019050919050565b60005b83811015620003c2578082015181840152602081019050620003a5565b60008484015250505050565b6000620003e5620003df846200036c565b6200034d565b905082815260208101848484011115620004045762000403620002d2565b5b62000411848285620003a2565b509392505050565b600082601f830112620004315762000430620002cd565b5b815162000443848260208601620003ce565b91505092915050565b600060ff82169050919050565b62000464816200044c565b81146200047057600080fd5b50565b600081519050620004848162000459565b92915050565b6000819050919050565b6200049f816200048a565b8114620004ab57600080fd5b50565b600081519050620004bf8162000494565b92915050565b60008060008060808587031215620004e257620004e1620002c3565b5b600085015167ffffffffffffffff811115620005035762000502620002c8565b5b620005118782880162000419565b945050602085015167ffffffffffffffff811115620005355762000534620002c8565b5b620005438782880162000419565b9350506040620005568782880162000473565b92505060606200056987828801620004ae565b91505092959194509250565b600081519050919050565b7f4e487b7100000000000000000000000000000000000000000000000000000000600052602260045260246000fd5b60006002820490506001821680620005c857607f821691505b602082108103620005de57620005dd62000580565b5b50919050565b60008190508160005260206000209050919050565b60006020601f8301049050919050565b600082821b905092915050565b600060088302620006487fffffffffffffffffffffffffffffffffffffffffffffffffffffffffffffffff8262000609565b62000654868362000609565b95508019841693508086168417925050509392505050565b6000819050919050565b600062000697620006916200068b846200048a565b6200066c565b6200048a565b9050919050565b6000819050919050565b620006b38362000676565b620006cb620006c2826200069e565b84845462000616565b825550505050565b600090565b620006e2620006d3565b620006ef818484620006a8565b505050565b5b8181101562000717576200070b600082620006d8565b600181019050620006f5565b5050565b601f82111562000766576200073081620005e4565b6200073b84620005f9565b810160208510156200074b578190505b620007636200075a85620005f9565b830182620006f4565b50505b505050565b600082821c905092915050565b60006200078b600019846008026200076b565b1980831691505092915050565b6000620007a6838362000778565b9150826002028217905092915050565b620007c18262000575565b67ffffffffffffffff811115620007dd57620007dc620002e8565b5b620007e98254620005af565b620007f68282856200071b565b600060209050601f8311600181146200082e576000841562000819578287015190505b62000825858262000798565b86555062000895565b601f1984166200083e86620005e4565b60005b82811015620008685784890151825560018201915060208501945060208101905062000841565b8683101562000888578489015162000884601f89168262000778565b8355505b6001600288020188555050505b505050505050565b610ab480620008ad6000396000f3fe608060405234801561001057600080fd5b50600436106100ea5760003560e01c8063891e1ee01161008c578063d21c8d5511610066578063d21c8d5514610251578063e2daf6651461026f578063f2fde38b1461028d578063ff9913e8146102a9576100ea565b8063891e1ee0146101f75780638da5cb5b1461021557806395d89b4114610233576100ea565b806327e235e3116100c857806327e235e314610149578063313ce567146101795780635c658165146101975780636cc639ef146101c7576100ea565b806306fdde03146100ef57806311de19e71461010d57806318160ddd1461012b575b600080fd5b6100f76102d9565b6040516101049190610789565b60405180910390f35b610115610367565b60405161012291906107ec565b60405180910390f35b61013361038d565b6040516101409190610820565b60405180910390f35b610163600480360381019061015e919061086c565b610393565b6040516101709190610820565b60405180910390f35b6101816103ab565b60405161018e91906108b5565b60405180910390f35b6101b160048036038101906101ac91906108d0565b6103be565b6040516101be9190610820565b60405180910390f35b6101e160048036038101906101dc919061086c565b6103e3565b6040516101ee9190610820565b60405180910390f35b6101ff6103fb565b60405161020c91906107ec565b60405180910390f35b61021d610421565b60405161022a91906107ec565b60405180910390f35b61023b610445565b6040516102489190610789565b60405180910390f35b6102596104d3565b60405161026691906107ec565b60405180910390f35b6102776104f9565b60405161028491906107ec565b60405180910390f35b6102a760048036038101906102a2919061086c565b61051f565b005b6102c360048036038101906102be919061086c565b6106d9565b6040516102d0919061092b565b60405180910390f35b600580546102e690610975565b80601f016020809104026020016040519081016040528092919081815260200182805461031290610975565b801561035f5780601f106103345761010080835404028352916020019161035f565b820191906000526020600020905b81548152906001019060200180831161034257829003601f168201915b505050505081565b600160009054906101000a900473ffffffffffffffffffffffffffffffffffffffff1681565b60085481565b60096020528060005260406000206000915090505481565b600760009054906101000a900460ff1681565b600b602052816000526040600020602052806000526040600020600091509150505481565b600c6020528060005260406000206000915090505481565b600360009054906101000a900473ffffffffffffffffffffffffffffffffffffffff1681565b60008054906101000a900473ffffffffffffffffffffffffffffffffffffffff1681565b6006805461045290610975565b80601f016020809104026020016040519081016040528092919081815260200182805461047e90610975565b80156104cb5780601f106104a0576101008083540402835291602001916104cb565b820191906000526020600020905b8154815290600101906020018083116104ae57829003601f168201915b505050505081565b600260009054906101000a900473ffffffffffffffffffffffffffffffffffffffff1681565b600460009054906101000a900473ffffffffffffffffffffffffffffffffffffffff1681565b60008054906101000a900473ffffffffffffffffffffffffffffffffffffffff1673ffffffffffffffffffffffffffffffffffffffff163373ffffffffffffffffffffffffffffffffffffffff16146105ad576040517f08c379a00000000000000000000000000000000000000000000000000000000081526004016105a4906109f2565b60405180910390fd5b600073ffffffffffffffffffffffffffffffffffffffff168173ffffffffffffffffffffffffffffffffffffffff160361061c576040517f08c379a000000000000000000000000000000000000000000000000000000000815260040161061390610a5e565b60405180910390fd5b8073ffffffffffffffffffffffffffffffffffffffff1660008054906101000a900473ffffffffffffffffffffffffffffffffffffffff1673ffffffffffffffffffffffffffffffffffffffff167f8be0079c531659141344cd1fd0a4f28419497f9722a3daafe3b4186f6b6457e060405160405180910390a3806000806101000a81548173ffffffffffffffffffffffffffffffffffffffff021916908373ffffffffffffffffffffffffffffffffffffffff16021790555050565b600a6020528060005260406000206000915054906101000a900460ff1681565b600081519050919050565b600082825260208201905092915050565b60005b83811015610733578082015181840152602081019050610718565b60008484015250505050565b6000601f19601f8301169050919050565b600061075b826106f9565b6107658185610704565b9350610775818560208601610715565b61077e8161073f565b840191505092915050565b600060208201905081810360008301526107a38184610750565b905092915050565b600073ffffffffffffffffffffffffffffffffffffffff82169050919050565b60006107d6826107ab565b9050919050565b6107e6816107cb565b82525050565b600060208201905061080160008301846107dd565b92915050565b6000819050919050565b61081a81610807565b82525050565b60006020820190506108356000830184610811565b92915050565b600080fd5b610849816107cb565b811461085457600080fd5b50565b60008135905061086681610840565b92915050565b6000602082840312156108825761088161083b565b5b600061089084828501610857565b91505092915050565b600060ff82169050919050565b6108af81610899565b82525050565b60006020820190506108ca60008301846108a6565b92915050565b600080604083850312156108e7576108e661083b565b5b60006108f585828601610857565b925050602061090685828601610857565b9150509250929050565b60008115159050919050565b61092581610910565b82525050565b6000602082019050610940600083018461091c565b92915050565b7f4e487b7100000000000000000000000000000000000000000000000000000000600052602260045260246000fd5b6000600282049050600182168061098d57607f821691505b6020821081036109a05761099f610946565b5b50919050565b7f4e6f74206f776e65720000000000000000000000000000000000000000000000600082015250565b60006109dc600983610704565b91506109e7826109a6565b602082019050919050565b60006020820190508181036000830152610a0b816109cf565b9050919050565b7f5a65726f20616464726573730000000000000000000000000000000000000000600082015250565b6000610a48600c83610704565b9150610a5382610a12565b602082019050919050565b60006020820190508181036000830152610a7781610a3b565b905091905056fea26469706673582212200ed443bf7dd0c88443f3416c331583250853ca5cf668ec03062fe9703342d43364736f6c63430008130033",
  "linkReferences": {},
  "deployedLinkReferences": {}
}